:1000000003308A00032B0000FF00030E8301A100D0
:100010000A08A0008A010408A2007708A300780853
:10002000A4007908A5007A08A600831383120B1E8A
:100030001B288B1832288C308400001C21280C18B7
:100040003528220884002308F7002408F800250832
:10005000F9002608FA0020088A00210E8300FF0E0E
:100060007F0E09008A110A1238288A110A123F28C5
:10007000A70A0319A80A8B108A110A122128B10AAB
:100080000C108A110A1221284937E931E9306E3201
:100090006F172E170D05000052284D1DA012E60601
:1000A0000A00831603178C170C140000000083123B
:1000B0000C087F39031997280313B30003170D08A1
:1000C0000313B40003170F080313B50033080C1E05
:1000D00067289900340803178D00031335080317A8
:1000E0008F0083168C170C140000000083120C0D77
:1000F0000E0D7F39031997280313B30003170D085A
:100100000313B40003170F080313B50033080C1EC4
:1001100087289900340803178D0003133508031747
:100120008F008D0A03198F0A031351280317031335
:100130008A110A12732B34308400831300080319C8
:10014000AF280130F800F701F70BA428F80BA3281B
:100150004A30F700F70BAA28AD28800BA1288A1196
:100160000A129E2B1030B700F701FA01B40CB30C41
:10017000031CC0283508F7070318FA0A3608FA07DF
:10018000FA0CF70CF90CF80CB70BB6288A110A1206
:10019000A82BF801F901F701FA013808031DD3284B
:1001A00037080319ED281030B9000310B50DB60D4E
:1001B000F70DFA0D38087A02031DE0283708770298
:1001C000031CE9283708F702031CFA033808FA026F
:1001D0000314F80DF90DB90BD5288A110A12B42BA6
:1001E0008E30F7003408F8003308F900FA01F808F7
:1001F000031D04297908F800F9010830F702F8080E
:10020000031D0429F7010C290310F81B0B29F90D14
:10021000F80DF7030429F8138A110A12BB2B831671
:1002200003178C170C140000000003183F298312D9
:100230000C087F390313B40003170D080313B5002E
:1002400003170F080313B60034080C1E2529990064
:10025000350803178D000313360803178F00831624
:100260008C170C140000000083120313B30B392900
:100270003C29831603173F295E298316031783122F
:100280000C0D0E0D7F390313B40003170D08031373
:10029000B50003170F080313B60034080C1E4E29CF
:1002A0009900350803178D000313360803178F00D4
:1002B0008D0A03198F0A0313B30B0F298A110A122F
:1002C000CD2BF701F801F901FA01C801C901CA01F2
:1002D000CB01470846044504440403199F292030F4
:1002E000CC000310C00DC10DC20DC30DC80DC90D4A
:1002F000CA0DCB0D47084B02031D882946084A0248
:10030000031D882945084902031D8829440848021D
:10031000031C99294408C8024508031C450FC9025B
:100320004608031C460FCA024708031C470FCB02AE
:100330000314F70DF80DF90DFA0DCC0B71294830A7
:100340008400831308000408B8003708BA000319B2
:10035000352A3608C3003508C2003408C100330806
:10036000C000C701C6012030C5008230C40040086B
:100370000319272AC80044080319272AC8070318A5
:10038000C8297F30C802031C272A0319272ACC2931
:100390008130C8070318272A4808F700F801F90137
:1003A000FA014108CC00CC174208CB004308CA0030
:1003B0001830C800C9014A1CF5294708FA07031C70
:1003C000E729F90A031DE729F80A0319C91746089E
:1003D000F907031CEE29F80A0319C9174508C200DA
:1003E000C2174208F8070318C917C90DF80CF90C11
:1003F000FA0CCC0CCB0CCA0C0310C80BDA29013058
:10040000F7070318272AF81B0C2ACC0DFA0DF90D53
:10041000F80DF7030319272ACC1F1D2AFA0A031D1A
:100420001D2AF90A031D1D2AF80A031D1D2AF80CAE
:10043000F90CFA0CF70A0319272A4108C9004508E4
:10044000C906C91F252AF8172B2AF8132B2AF701EA
:10045000F801F901FA017A08B6007908B5007808C0
:10046000B4007708B300BA0BA9293608C3003508D1
:10047000C2003408C1003308C0004008B63CC000C8
:10048000FA014108C400C1170310C10CC20CC30C0F
:10049000FA0CF90CF80CF70CC00B442AC41F5B2AA9
:1004A000F709F809F909FA09F70A0319F80A03190B
:1004B000F90A0319FA0A7A08B6007908B50078082B
:1004C000B4007708B300B61F722AB803B816B30990
:1004D000B409B509B609B30A0319B40A0319B50A70
:1004E0000319B60A3B30BF009A30BE00CA30BD00C7
:1004F000BC010A30BA0037080319B80A3608C3002D
:100500003508C2003408C1003308C0003F08C700E6
:100510003E08C6003D08C5003C08C4006121000833
:10052000B300840A0008B400840A0008B500840AF5
:100530000008B600FD308407F708031DB22A370A09
:100540003A020319B22A38080319B42A0F393A02B9
:100550000319AC2A0318E82AB81BE82A381BB42A66
:100560002030E32A2030B805B81EC32AB812370855
:10057000031DB8037708B8002D300C1EBD2A990062
:100580003808F700B80137083A02031DD22A770865
:10059000B8002E300C1ECA2A99003808F700203007
:1005A000B80500303030B81EE32AB8123708031DF2
:1005B000B8037708B8002D300C1EDC2A99003808E3
:1005C000F700B8013030F70777080C1EE52A9900CC
:1005D0003F08C3003E08C2003D08C1003C08C000FF
:1005E000C701C601C5010A30C40061217A08BF00F5
:1005F0007908BE007808BD007708BC00BA0B7E2AD7
:100600008A110A12DA2B840183131F3083058316A3
:1006100003178711193003139900A6309800903002
:1006200083129800A801A701AA01A901B1018316AC
:1006300003170908C039890003131F129F120030E5
:10064000031788008312870188018901FF30031393
:10065000B200013083168500860003170908C039EF
:10066000890003131F129F120130031788008312A1
:1006700003131F179F1783169F1783121F14F93038
:10068000AB000130AC002C02F800780DF700F70D3C
:10069000F70DF830F7057708053892002B08831618
:1006A00092008312321132088316870083120711D9
:1006B000831609130C308312970083169B019C014B
:1006C00005308312900083160C1483120B168316C8
:1006D0000117C03083128B04443003178D000030A3
:1006E0008F00031351280030F8001F08C339780425
:1006F0009F002130F700F70B7B2B9F149F187E2B58
:1007000083161E088312A9001E08AA002A08F900F1
:100710002908F800F90CF80CF90CF80CF90C780819
:100720009500F90C790C3039F7001708CF397704A8
:1007300097000930B3006F30B4009B28B30B9B2B9C
:100740002808B4002708B300B6013C30B500B22831
:100750007908B4007808B3007908B6007808B500C5
:10076000B8011430B700C9287908FA007808B30036
:100770007908B400F0287A08B0007908AF0078084A
:10078000AE007708AD004C3003178D0000308F00AD
:10079000031005300313B3000F298930840030089B
:1007A000B6002F08B5002E08B4002D08B3000230A3
:1007B000B700A3290D300C1EDB2B99000A300C1E4C
:1007C000DF2B9900A801A701B1018F018E01732BC6
:0207D0006300C4
:04400E00E12CFF3F63
:00000001FF
;PIC16F887
;CRC=8080  CREATED="27-nov.-23 13:20"
